:020000040800F2
:1000000000200020A10B0008950B0008970B0008AA
:1000100000000000000000000000000000000000E0
:10002000000000000000000000000000990B000824
:1000300000000000000000009B0B00089D0B000862
:10004000F10B0008F10B0008F10B0008F10B0008A0
:10005000F10B0008F10B0008F10B0008F10B000890
:10006000F10B0008F10B0008F10B0008F10B000880
:10007000F10B0008F10B0008F10B0008F10B000870
:10008000F10B0008F10B000800000000F10B000864
:10009000F10B0008F10B0008F10B0008F10B000850
:1000A000F10B0008F10B0008F10B0008F10B000840
:1000B000F10B000800000000F10B00080000000038
:1000C00003B47146490840004900095E49008E4466
:1000D00003BC7047002243088B4274D303098B4250
:1000E0005FD3030A8B4244D3030B8B4228D3030C08
:1000F0008B420DD3FF22090212BA030C8B4202D3AA
:100100001212090265D0030B8B4219D300E0090AD1
:10011000C30B8B4201D3CB03C01A5241830B8B42DA
:1001200001D38B03C01A5241430B8B4201D34B03C3
:10013000C01A5241030B8B4201D30B03C01A524128
:10014000C30A8B4201D3CB02C01A5241830A8B42AD
:1001500001D38B02C01A5241430A8B4201D34B0296
:10016000C01A5241030A8B4201D30B02C01A5241FA
:10017000CDD2C3098B4201D3CB01C01A52418309AE
:100180008B4201D38B01C01A524143098B4201D3E8
:100190004B01C01A524103098B4201D30B01C01A13
:1001A0005241C3088B4201D3CB00C01A524183088D
:1001B0008B4201D38B00C01A524143088B4201D3BA
:1001C0004B00C01A5241411A00D20146524110461A
:1001D0007047FFE701B5002000F0F0F802BDC0460F
:1001E0000029F7D076E7704703460B437FD40022FF
:1001F00043088B4274D303098B425FD3030A8B42BB
:1002000044D3030B8B4228D3030C8B420DD3FF2224
:10021000090212BA030C8B4202D31212090265D0F2
:10022000030B8B4219D300E0090AC30B8B4201D3A5
:10023000CB03C01A5241830B8B4201D38B03C01AEC
:100240005241430B8B4201D34B03C01A5241030B63
:100250008B4201D30B03C01A5241C30A8B4201D314
:10026000CB02C01A5241830A8B4201D38B02C01ABF
:100270005241430A8B4201D34B02C01A5241030A36
:100280008B4201D30B02C01A5241CDD2C3098B421B
:1002900001D3CB01C01A524183098B4201D38B0198
:1002A000C01A524143098B4201D34B01C01A52413B
:1002B00003098B4201D30B01C01A5241C3088B4280
:1002C00001D3CB00C01A524183088B4201D38B006B
:1002D000C01A524143088B4201D34B00C01A52410D
:1002E000411A00D201465241104670475DE0CA0FE4
:1002F00000D04942031000D34042534000229C46A4
:1003000003098B422DD3030A8B4212D3FC228901AD
:1003100012BA030A8B420CD3890192118B4208D383
:10032000890192118B4204D389013AD0921100E0E5
:100330008909C3098B4201D3CB01C01A52418309F9
:100340008B4201D38B01C01A524143098B4201D326
:100350004B01C01A524103098B4201D30B01C01A51
:100360005241C3088B4201D3CB00C01A52418308CB
:100370008B4201D38B00C01A5241D9D243088B4221
:1003800001D34B00C01A5241411A00D201466346C4
:1003900052415B10104601D34042002B00D5494228
:1003A000704763465B1000D3404201B5002000F067
:1003B00005F802BD0029F8D016E770477047C0461F
:1003C000844608006146FFE71FB502F061FC002883
:1003D00001D40021C8421FBD10B502F0E9FB404224
:1003E000013010BD10B502F053FC002801DB0020E5
:1003F00010BD012010BDC04610B502F049FC002818
:1004000001DD002010BD012010BDC04610B502F076
:10041000F7FB002801DC002010BD012010BDC04604
:1004200010B502F0EDFB002801DA002010BD01201C
:1004300010BDC0461C2101231B04984201D3000CAF
:1004400010391B0A984201D3000A08391B09984247
:1004500001D30009043902A2105C40187047C0465D
:10046000040302020101010100000000000000007D
:1004700010B5064C2378002B07D1054B002B02D07A
:10048000044800E000BF0123237010BD8400002059
:1004900000000000202D0008044B10B5002B03D0F5
:1004A0000349044800E000BF10BDC0460000000042
:1004B00088000020202D000882B043001818002377
:1004C000019304E0C046C046019B01330193019BA8
:1004D0008342F7D302B0704770B51420FFF7ECFFEA
:1004E0000A4CA36980252D022B43A3611420FFF73A
:1004F000E3FFA26980231B061343A3611420FFF7C7
:10050000DBFFA3691D43A56170BDC046000800481C
:1005100010B50400454A91698023DB010B439361C8
:1005200043B2002B46DB9022D205916980231B0643
:100530000B439361630645D59022D20591698023D0
:100540005B010B439361A30644D5394A916980232B
:100550009B000B439361E30643D5354A91698023A1
:100560005B000B439361FFF7B7FF230740D5902251
:10057000D205916980231B020B43936163073FD52A
:100580009022D205916980235B010B439361A307FD
:100590003ED5274A916980239B000B439361E40772
:1005A0003DD5234A916980235B000B439361FFF79C
:1005B00093FF10BD9022D205916980231B020B434B
:1005C0009361B7E79022D205916980235B050B43C5
:1005D0009361B8E7164A916980239B040B439361AA
:1005E000B9E7134A916980235B040B439361BAE72F
:1005F0009022D205916980231B060B439361BDE7CE
:100600009022D205916980235B050B439361BEE77D
:10061000074A916980239B040B439361BFE7044A17
:10062000916980235B040B439361C0E70008004895
:100630000004004870B50500002403E0FFF768FFE0
:100640000134E4B2285D0028F8D170BD10B5040073
:10065000474A91698023DB050B43936143B2002B2A
:1006600049DB9022D205916980231B060B439361DD
:10067000630648D59022D205916980235B010B4324
:100680009361A30647D53B4A916980239B000B43A6
:100690009361E30646D5374A916980235B000B439B
:1006A0009361FFF719FF230743D59022D205916983
:1006B00080231B020B439361630742D59022D2052E
:1006C000916980235B010B439361A30741D5294ABC
:1006D000916980239B000B439361E40740D5254A31
:1006E000916980235B000B439361FFF7F5FE22487D
:1006F000FFF7E2FE10BD9022D205916980231B0214
:100700000B439361B4E79022D205916980235B0586
:100710000B439361B5E7174A916980239B040B4310
:100720009361B6E7134A916980235B040B4393619D
:10073000B7E79022D205916980231B060B43936192
:10074000BAE79022D205916980235B050B43936140
:10075000BBE7084A916980239B040B439361BCE784
:10076000044A916980235B040B439361BDE7C04653
:100770000008004800040048B80B000010B51B4BEF
:100780005969802292020A435A6159698022D20231
:100790000A435A615969802212030A435A6190221E
:1007A000D20511688223DB050B431360104A1168E0
:1007B000A023DB020B4313600E4A1168A023DB0564
:1007C0000B4313600C48FFF777FE3320FFF73EFF23
:1007D0003220FFF73BFF0C20FFF738FF2820FFF700
:1007E00035FF0120FFF732FF10BDC0460010024068
:1007F00000040048000800483075000010B50120D2
:10080000FFF724FF0448FFF715FFC020FFF71EFF86
:100810000248FFF70FFF10BD140000200000002069
:1008200010B582B00200084901AC200000F0E4FAE3
:100830002278064BDA7162781A72A2785A72FFF740
:10084000DDFF02B010BDC046382D000814000020A6
:1008500010B5044B6F22DA73034B4F3ADA73FFF78C
:10086000CDFF10BD140000200000002010B5044B87
:100870002022DA73034B4F32DA73FFF7BFFF10BD4C
:10088000140000200000002010B50120FFF7DEFE5C
:100890000448FFF7CFFEC020FFF7D8FE0248FFF75D
:1008A000C9FEFEE7402D0008502D000810B5354B5D
:1008B0009B7B7E2B15D0344B9B7B7E2B17D0C82186
:1008C000FFF708FC80B202F0DDF8304901F026FDA8
:1008D00001F0F6FBC4B2002C0FD0072C0ED9072470
:1008E0000CE0284BDB7B6F2BE5D1FFF7CDFF264BD0
:1008F000DB7B6F2BE3D1FFF7C7FF01240F2306E05B
:100900000B2B1ED85A1E2049885CC854D3B2002B2A
:10091000F6D11D4B20221A701A4BDA72DB7B6F2B3B
:1009200014D0194B6F22DA7300F064F90A21FFF733
:1009300041FDCBB20133DBB29C420BD3FFF75EFF2C
:1009400010BD5A1E0F498A5CCA54DBE70D4B4F326B
:100950001A70E9E700F04EF9C217920F80180323CE
:1009600003409B1ADBB2002B07D1074BDB7A202B0D
:10097000E4D1044B7E22DA72E0E7034B7E221A7048
:10098000DCE7C046140000200000002000002041E9
:1009900070B50120FFF75AFE4448FFF74BFEC02018
:1009A000FFF754FE4248FFF745FE424C2000FFF798
:1009B00083FD0120FFF74AFE3F48FFF73BFEC020C2
:1009C000FFF744FE3D48FFF735FE2000FFF774FDBA
:1009D0000120FFF73BFE3A48FFF72CFEC020FFF74F
:1009E00035FE3848FFF726FE2000FFF765FD0120A1
:1009F000FFF72CFE3448FFF71DFEC020FFF726FE50
:100A00003248FFF717FE9023DB051B695B07FAD41A
:100A10000120FFF71BFE2E4D2800FFF70BFEC02024
:100A2000FFF714FE2B48FFF705FE2B4C2000FFF7C5
:100A300043FD0120FFF70AFE2800FFF7FBFDC02061
:100A4000FFF704FE2548FFF7F5FD2000FFF734FD12
:100A50000120FFF7FBFD2800FFF7ECFDC020FFF7AA
:100A6000F5FD1F48FFF7E6FD2000FFF725FD0120FB
:100A7000FFF7ECFD2800FFF7DDFDC020FFF7E6FDE6
:100A80001848FFF7D7FD2000FFF716FD0120FFF7FC
:100A9000DDFD2800FFF7CEFDC020FFF7D7FD12488F
:100AA000FFF7C8FD2000FFF707FD70BD5C2D0008B3
:100AB0006C2D0008E09304007C2D00088C2D0008AC
:100AC0009C2D0008A82D0008B42D0008BC2D00089E
:100AD000C82D0008D42D0008F0490200D82D0008C8
:100AE000DC2D0008E02D0008E42D000870B5254A33
:100AF000516980239B020B4353619023DB05DA6825
:100B000010210A43DA60DA680C390A43DA60DA68DD
:100B10003C310A43DA60FFF731FEFFF739FFFFF798
:100B20006DFE194D002424E09023DB051B691B0793
:100B300001D4FFF79BFE0134A4B22800FFF7BCFCF0
:100B40002000FFF7B3FE2000FFF76AFE200001F04F
:100B5000E9FF0E4901F0CCFA0D4901F0DFFB061C5C
:100B6000280001F08FFF311C01F02AFD01F06AFF1F
:100B700005009023DB051B699B07D5D4FFF768FEB2
:100B8000D2E7C04600100240E09304000000C842D3
:100B900000007A44FEE7FEE77047704770477047F1
:100BA0000D488546FFF7FBFF0C480D490D4A002311
:100BB00002E0D458C4500433C4188C42F9D30A4A12
:100BC0000A4C002301E013600432A242FBD300F080
:100BD000D7F9FFF78BFFFEE7002000200000002080
:100BE00084000020742F000884000020F001002001
:100BF000FEE70000164B70B51D682C6B002C17D15A
:100C0000182000F04DFA041E286305D1220052215D
:100C1000104B114800F0DCF9104B01220360104B1F
:100C20004360104B83600B23838100230261436187
:100C3000206961690C4A0D4B01F014FA012200236E
:100C400080185941206161614800400870BDC0466C
:100C500034000020E62D0008FD2D00080E33CDAB3A
:100C600034126DE6ECDE05002D7F954C2DF45158C5
:100C7000002310B5040003604360836081814366F4
:100C8000C281036143618361190008225C3000F076
:100C900021F90B4B246263620A4BA3620A4BE362A5
:100CA0000A4B23630A4B9C4205D00A4B9C4202D05C
:100CB000094B9C4203D12000583000F085F910BD4B
:100CC0003D0E0008650E00089D0E0008C90E0008C4
:100CD000A0000020080100207001002010B5034A88
:100CE0000349044800F06CF810BDC04628000020FD
:100CF000F51800083800002041680B4B10B50400BF
:100D0000994201D000F0F6FDA168084B994202D04B
:100D1000200000F0EFFDE168054B994202D0200071
:100D200000F0E8FD10BDC046A00000200801002032
:100D30007001002010B5094B094A04211A600948C6
:100D40000022FFF795FF012209210748FFF790FFD6
:100D5000022212210548FFF78BFF10BDD8010020A9
:100D6000DD0C0008A0000020080100207001002018
:100D700010B5024800F029F910BDC046E10100207D
:100D800010B5024800F022F910BDC046E101002074
:100D900010B50400FFF7ECFF236A002B02D0FFF729
:100DA000EFFF10BD044B2362044B1B68002BF6D1F0
:100DB000FFF7C0FFF3E7C046F90C0008D801002098
:100DC000F7B51400002600900191A5686768013FFF
:100DD00004D52468002CF8D13000FEBDAB89012B6E
:100DE00008D90E22AB5E013304D029000098019B84
:100DF000984706436835EAE70EB410B500249DB065
:100E0000029006900A481FAB07900490094804CB53
:100E10000590094802A9006801934C6600F060FA49
:100E2000029B1C701DB010BC08BC03B01847C04624
:100E3000FFFFFF7F0802FFFF3400002070B50C00A9
:100E40000E25495F00F074F8002803DB636D1B1862
:100E5000636570BDA389024A1340A381F9E7C046C8
:100E6000FFEFFFFFF8B51F008B8905000C0016008F
:100E7000DB0505D50E23C95E0022022300F044F8ED
:100E8000A389054A28001340A38132000E23E15EA6
:100E90003B0000F061F8F8BDFFEFFFFF70B50C00FC
:100EA0000E25495F00F030F80C22A35E421C03D1EE
:100EB000044A1340A38170BD802252011343A381D1
:100EC0006065F8E7FFEFFFFF10B50E23C95E00F085
:100ED00009F810BD03008218934200D170471970C1
:100EE0000133F9E7002370B5064D040008002B60BC
:100EF00001F068F8431C03D12B68002B00D023605D
:100F000070BDC046DC01002070B50400080011006F
:100F10001A000023054D2B6001F07CF8431C03D11F
:100F20002B68002B00D0236070BDC046DC01002080
:100F300070B50400080011001A000023054D2B6055
:100F400001F070F8431C03D12B68002B00D0236004
:100F500070BDC046DC01002070B50400080011001F
:100F60001A000023054D2B6001F072F8431C03D1D9
:100F70002B68002B00D0236070BDC046DC01002030
:100F800070B500260C4C0D4D641BA410A64209D16F
:100F9000002601F0C5FE0A4C0A4D641BA410A642AF
:100FA00005D170BDB300EB5898470136EEE7B300AA
:100FB000EB5898470136F2E76C2F00086C2F0008B9
:100FC000702F00086C2F00087047704770470000B2
:100FD0007FB514001A00094B05001B680E00D86885
:100FE000074B002C01D1074B1C00074901930294C9
:100FF0002B00009600F0AAFC00F0F0FC340000206A
:101000007F2E0008BA2E00088C2E000870B505004F
:101010000C1E10D0043C2368002B00DAE4182800D2
:1010200000F0EAF81D4A1368002B05D163601460D4
:10103000280000F0E9F870BDA34208D92068211803
:101040008B42F3D119685B6809182160EEE71A003A
:101050005B68002B01D0A342F9D911685018A04257
:101060000BD120680918501811608342E0D118682C
:101070005B68411811605360DAE7A04202D90C2383
:101080002B60D5E7206821188B4203D119685B6873
:101090000918216063605460CAE7C046E801002077
:1010A00010B5034B0100186800F026F810BDC046CB
:1010B0003400002070B50F4E0D0031680400002987
:1010C00002D100F065FC30602900200000F060FCD7
:1010D000431C03D101256D42280070BD0323C51CAC
:1010E0009D43A842F8D0291A200000F051FC01309D
:1010F000F2D1EFE7E4010020F7B50322CB1C9343C4
:10110000083305001F000C2B34D20C27B94233D80A
:10111000280000F071F8374E33681C00002C2FD1E6
:1011200039002800FFF7C6FF0400431C5FD1346874
:101130000094009B002B4AD1002C52D02368280039
:10114000E3180099019300F023FC019B834248D1EE
:1011500023682800FF1A3900FFF7ACFF013040D0A8
:101160002368DB19236033685A68002A33D1009B57
:10117000336019E0002BC9DA0C232B600020FEBD80
:101180002168C91B20D40B290AD9E2192760A34280
:1011900004D1326063681160536005E05A60F9E77A
:1011A0006268A3420ED13260280000F02DF82000C2
:1011B00007220B30231D9043C21A9842DFD01B1A1E
:1011C000A350DCE75A60EFE723006468A6E7009CC1
:1011D00063680093ADE71A005B68A342FBD100236C
:1011E000DAE70C2328002B6000F00EF8C6E7076052
:1011F000DAE7C046E801002010B50248FFF7E5FE37
:1012000010BDC046E001002010B50248FFF7DEFE29
:1012100010BDC046E0010020F0B58E6885B01F000B
:101220000C00330002900392BE4254D80C22885E18
:101230009022D20010422CD00322096923685B1A45
:10124000019363695343019ADD0FED187B1C6D1008
:101250009B182A00AB4201D91D001A00400527D572
:1012600011000298FFF748FF061E2AD0019A216953
:1012700000F0ABFBA289194B1A4080231343A381D2
:10128000019B2661F618266065613E00ED1A3B0061
:10129000A5601F003A000399206800F067FB00205A
:1012A000A3689B1BA3602368DB19236005B0F0BD16
:1012B000029800F09AFB061EE2D121690298FFF71E
:1012C000A5FE0C230120029A40421360A289343308
:1012D0001343A381EAE73E00DCE7C0467FFBFFFF44
:1012E000F0B59FB002901C008B890E0015001B0604
:1012F00011D50B69002B0ED14021FFF7FDFE3060A8
:101300003061002805D10C23029A1360012040426D
:10131000D4E0402373610023292102AA52180B93C1
:1013200020331370013102AA103352181370059440
:101330002C002378002B01D0252B48D1671BAC4211
:101340000BD03B002A0031000298FFF765FF013007
:1013500000D1AEE00B9BDB190B932378002B00D15F
:10136000A7E00122532100235242079202AA5218F9
:10137000651C06930993089313701C93554F2978A5
:101380000522380000F016FB6C1C069906AB0028FD
:101390001FD1CA0604D55327202202A8C019027003
:1013A0000A0704D553272B2202A8C01902702A78F5
:1013B0002A2A15D02C0000200A27DA682178651C1B
:1013C0003039092950D9002811D009920FE0013491
:1013D000AFE70123C01B83400B4325000693CDE7F5
:1013E000059A101D12680590002A37DBDA60227812
:1013F0002E2A0CD162782A2A3BD1059A0234111D7B
:1014000012680591002A01DA012252425A60324DD7
:1014100003222800217800F0CDFA06AF002806D07C
:101420004023401B8340069A0134134306932178DE
:1014300006222A48651C397600F0BCFA00283FD005
:10144000274B002B29D10722059B073393430833F1
:1014500005930B9B03995B180B9369E75242DA6083
:1014600002220A430692C2E77A432C000120521856
:10147000A4E700220A205A601100130001342278E8
:10148000651C303A092A03D9002BC0D00791BEE76A
:1014900041432C0001238918F1E705AA0092390085
:1014A0003200104B029800E000BF0390039B013311
:1014B000CFD1B3890B985B0600D527E71FB0F0BDED
:1014C00005AA009239003200064B029800F07CF821
:1014D000EBE7C046BB2E0008C12E0008C52E000851
:1014E0000000000019120008F7B5160001938A6881
:1014F0000B690C000090934200DA13002200336065
:1015000043321278002A01D00133336023689B06EE
:1015100002D53368023333602268062315001D406C
:101520001A4227D0230043331B785A1E9341226866
:10153000920630D4220001990098089D4332A847B2
:10154000013025D00622236800251340042B05D145
:101550003368E568ED1AEB43DB171D40A368226989
:10156000934201DD9B1AED180026B54220D10020E0
:1015700010E00135E36832689B1AAB42D2DD2200ED
:10158000012301990098089F1932B8470130F0D122
:1015900001204042FEBD3020E11843310870210097
:1015A0005A1C45310978A218433202331170C1E741
:1015B0002200012301990098089F1A32B847013090
:1015C000E6D00136D1E70000F0B58BB006920A00F4
:1015D00043320793059003920A7E0C00109B782AF1
:1015E00009D8622A0BD8002A00D1BAE07A490491BE
:1015F000582A00D18EE0250042352A7022E01000E2
:1016000063381528F7D8FEF75BFD16001F00F6FFBC
:10161000F6FFF6FFF6FF1F00F6FFF6FFF6FFF6FFF8
:101620009F0036007E00F6FFF6FFB000F6FF3600A2
:10163000F6FFF6FF820025001A684235111D196079
:1016400013682B7001239EE018680968021D0D06BF
:101650000BD506681A60002E03DA2D23039A764212
:1016600013705D4B0A27049318E006681A60490658
:10167000F1D536B2EFE70868196840C9050602D40B
:10168000400600D5B6B21960534B0A2704936F2A5F
:1016900000D1023F2300002243331A706368A36025
:1016A000002B06DB04212268039D8A43226033431A
:1016B0000CD0039D30003900FEF792FD049B013DE4
:1016C0005B5C2B70330006009F42F3D9082F09D1D1
:1016D0002368DB0706D5626823699A4202DC30235F
:1016E000013D2B70039B5B1B2361079B2100009333
:1016F0000598069B09AAFFF7F7FE013048D10120A3
:1017000040420BB0F0BD202209680A4322607822D3
:1017100032490491210045310A701968226840C994
:10172000100602D4500600D5B6B21960D30702D510
:10173000202313432360002E01D01027AAE7202284
:10174000236893432360F8E71A680D68101D496900
:10175000186013682E0601D5196002E06D06FBD5EE
:1017600019800023039D2361BFE71A68111D1960CA
:10177000156800212800626800F01CF9002801D0DB
:10178000401B6060636823610023039A1370ACE719
:101790002A00236906990598079DA8470130AED015
:1017A00023689B0715D4099BE0689842A9DA1800C2
:1017B000A7E72200012306990598079E1932B04732
:1017C00001309CD00135E368099A9B1AAB42F0DCEA
:1017D000E9E70025F7E7C046CC2E0008DD2E00081B
:1017E000F7B50C228B5E05000C001A075AD44A6824
:1017F000002A02DC0A6C002A4FDDE76A002F4CD079
:10180000002280212E682A601A0049010A400B42FA
:1018100034D0626DA3895B0706D56368D21A636B07
:10182000002B01D0236CD21A00232800E76A216A1A
:10183000B8470C23E25E431C06D129681D292ED827
:101840002B4BCB40DB072AD5002363602369236041
:10185000D20405D5431C02D12B68002B00D1606552
:10186000616B2E60002918D023004433994202D0C6
:101870002800FFF7CBFB002363630EE00123280061
:10188000216AB8470200431CC4D12B68002BC1D089
:101890001D2B01D0162B1DD12E60002021E04023EE
:1018A00013431BE00E69002EF7D00F680E60BA1BC1
:1018B000019200229B0700D14A69A260019B002B84
:1018C000EBDDA36A32001F002800019B216AB847A4
:1018D000002807DC4023A28913431BB20120A38107
:1018E0004042FEBD019B36181B1A0193E6E7C04635
:1018F000010040200B6970B505000C00002B02D1DF
:101900000025280070BD002804D0036A002B01D1F7
:10191000FFF73EFA0C22A35E002BF1D0626ED207D5
:1019200004D49B0502D4A06DFFF74FFB28002100D3
:10193000FFF756FF636E0500DB07E2D4A3899B0522
:10194000DFD4A06DFFF742FBDBE700000EB417B554
:10195000054C05AB04CB01002068019300F09CF816
:101960001EBC08BC03B018473400002010B58842E4
:1019700002D98B18984208D300239A4207D0CC5C36
:10198000C4540133F9E78B5C8354013AFBD210BD98
:10199000002370B5064D040008002B6000F04AFBE0
:1019A000431C03D12B68002B00D0236070BDC046C0
:1019B000DC010020C9B28218904201D1002070479A
:1019C00003788B42FBD00130F6E7002310B59A4232
:1019D00000D110BDCC5CC4540133F8E7062010B52B
:1019E00000F040FA012000F03BFBF7B506000C00C8
:1019F0001500002905D11100FFF77EFB040020002F
:101A0000FEBD002A03D1FFF701FB2C00F7E700F031
:101A100049FA0700854202D84308AB42EFD32900B8
:101A20003000FFF769FB0190002801D1019CE6E737
:101A30002A00BD4200D93A0021000198FFF7C5FFF6
:101A400021003000FFF7E2FAF0E7936810B5013BA0
:101A50009360002B04DA9469A34207DB0A2905D0BE
:101A60001368581C10601970080010BD00F034F99C
:101A70000100F9E7F8B506000F001400D518AC42D4
:101A800001D1002007E021783A003000FFF7DDFFA8
:101A90000134431CF3D1F8BDF0B59FB00D00160022
:101AA0001C000290002804D0036A002B01D1FFF72C
:101AB0006FF96B6EDB0705D4AB899B0502D4A86D6B
:101AC000FFF783FAAB891B0702D52B69002B13D1D3
:101AD0002900029800F042F900280DD06B6EDB0758
:101AE00003D5012040421FB0F0BDAB899B05F8D45F
:101AF000A86DFFF76BFAF4E70023292102AA521818
:101B00000B9320331370013102AA10335218137053
:101B1000059434002378002B01D0252B48D1A71B36
:101B2000B4420BD03B00320029000298FFF7A2FF1D
:101B3000013000D1AEE00B9BDB190B932378002B17
:101B400000D1A7E00122532100235242079202AAAA
:101B50005218661C06930993089313701C93594FEF
:101B6000317805223800FFF725FF741C069906AB73
:101B700000281FD1CA0604D55327202202A8C01965
:101B800002700A0704D553272B2202A8C01902703D
:101B900032782A2A15D0340000200A27DA68217802
:101BA000661C3039092950D9002811D009920FE05C
:101BB0000134AFE70123C01B83400B43260006938B
:101BC000CDE7059A101D12680590002A37DBDA6010
:101BD00022782E2A0CD162782A2A3BD1059A023427
:101BE000111D12680591002A01DA012252425A6041
:101BF000354E032230002178FFF7DCFE06AF0028C7
:101C000006D04023801B8340069A01341343069379
:101C1000217806222D48661C3976FFF7CBFE002876
:101C200047D02B4B002B29D10722059B0733934329
:101C3000083305930B9B03995B180B9369E752429A
:101C4000DA6002220A430692C2E77A433400012096
:101C50005218A4E700220A205A6011001300013430
:101C60002278661C303A092A03D9002BC0D007918C
:101C7000BEE74143340001238918F1E705AA009229
:101C800039002A00134B029800E000BF0390039B29
:101C90000133CFD16B6EDB0705D4AB899B0502D432
:101CA000A86DFFF793F9AB895B0600D519E70B9890
:101CB00019E705AA009239002A00064B0298FFF79F
:101CC00083FCE3E7BB2E0008C12E0008C52E0008E8
:101CD00000000000751A0008F8B506000D00140099
:101CE000002804D0036A002B01D1FFF751F8A36943
:101CF000A360A3891B0702D52369002B09D121000A
:101D0000300000F02BF8002803D001256D42280098
:101D1000F8BD23692068EFB2C01A6369EDB283424F
:101D200005DC21003000FFF7E5FD0028EDD1A368B8
:101D30000130013BA36023685A1C22601F70636955
:101D4000834204D0A389DB07E1D50A2DDFD121002E
:101D50003000FFF7CFFD0028D9D0D6E72B4B70B568
:101D6000050018680C00002804D0036A002B01D17C
:101D7000FFF70EF80C22A35E1A0722D4DA0607D466
:101D800009222A60373201201343A381404270BDEB
:101D90005A0713D5616B002908D0230044339942B8
:101DA00002D02800FFF732F9002363632422A389BD
:101DB00093430022626022691BB22260082213430F
:101DC000A3812269002A07D19A0501D51B0603D5F4
:101DD0002100280000F098F80C23E25E0121130096
:101DE0000B400A420CD00023A36063695B42A361ED
:101DF000002023698342CAD11306C8D54023C2E715
:101E0000910700D46369A360F2E7C0463400002064
:101E100070B504000D001F2904D9162303600120AA
:101E2000404270BDC36B002B04D08A009B181A6817
:101E3000002A08D1200000F031F82A00010020001B
:101E400000F01AF8EDE7012A09D0511C03D116233E
:101E500003600120E5E70021280019609047002079
:101E6000DFE7000010B5034B01001868FFF7D0FF53
:101E700010BDC04634000020002370B5064D04009C
:101E8000080011002B6000F0BDF8431C03D12B6843
:101E9000002B00D0236070BDDC01002010B500F0E5
:101EA000A1F810BD0B1F1B68181F002B01DA0B587F
:101EB000C0187047F0B50E001D000E23C95E140057
:101EC00097B000290CDAB2898023110019401A4218
:101ED00014D18023DB0000202960236017B0F0BDFF
:101EE0006A4600F04BF80028EDDBF02301991B0255
:101EF0001940044BC9184B425941EAE700214023DD
:101F0000E9E7C04600E0FFFFF7B502268B89050030
:101F10000C00334206D023004733236023610123A2
:101F20006361F7BD6A4601ABFFF7C4FF009F28005D
:101F30003900FFF7E1F80C22A35E002806D19A05CC
:101F4000EFD4032293431E43A681E4E78022134388
:101F5000A381019B206020616761002BE1D02800F4
:101F60000E23E15E00F01CF80028DAD00323A289DA
:101F70009A43023B1343A381D3E70000002370B5CB
:101F8000064D0400080011002B6000F023F8431CEC
:101F900003D12B68002B00D0236070BDDC01002032
:101FA000002370B5064D040008002B6000F022F8F5
:101FB000431C03D12B68002B00D0236070BDC046AA
:101FC000DC01002058220120014B40421A6070477A
:101FD000DC01002058220120014B40421A6070476A
:101FE000DC01002058220120014B40421A6070475A
:101FF000DC0100205822024B00201A607047C046C6
:10200000DC01002058220120014B40421A60704739
:10201000DC01002058220120014B40421A60704729
:10202000DC01002058220120014B40421A60704719
:10203000DC010020044A03001068002802D0C31805
:10204000136070470148FAE7EC010020F00100201E
:1020500058220120014B40421A607047DC010020E9
:10206000FEE7C046F0B5CE469946030C9C461304E5
:1020700047461B0C1D000E0061460404240C80B56D
:102080000700100C4B436543414360432C0CC018C0
:1020900024188C46A34203D980235B029846C4448B
:1020A000494679435643230C2D042D0C891963446A
:1020B00024046019C918C0BCB946B046F0BDC0467A
:1020C0009E2110B5C905041CFEF7AAF9002803D10A
:1020D000201C00F0B7FC10BD9E21201CC90500F09B
:1020E0006FFA00F0AFFC80231B069C466044F2E7C9
:1020F000F0B546464F46D6464502C0B5C30F470029
:1021000098460E1C6D0A3F0E5BD0FF2F21D0802316
:10211000ED00DB041D43002399469A467F3F74027D
:102120007300640A1B0EF60F002B20D0FF2B43D048
:1021300080220020E400D20414437F3B4246FF1A71
:102140004B4672400F2B00D99DE071499B00CB5844
:102150009F46002D5AD108239946063B74029A46A1
:102160007300FF27640A1B0EF60F002BDED1002C34
:102170003BD1012342464946724019430E2918D8E3
:102180006448890041588F465346022B00D1B8E07D
:10219000032B6ED042462C00012B40D1002000249E
:1021A000C0052043D2071043E0BCBA46B146A8465A
:1021B000F0BDFF200024F3E7002C20D10223FF3FD5
:1021C000D8E7002D05D104239946033B00279A4602
:1021D000A5E72800FEF72EF97627431F9D40002330
:1021E0007F4299469A463F1A99E72000FEF722F966
:1021F000431F9C4076235B421B1A00209EE703236B
:102200004A461A4391460320FC3397E70C2399462C
:10221000093BFF279A4682E703282CD0320038007A
:102220007F30002847DD630704D00F232340042BB1
:1022300000D00434230103D53800374B80301C40D4
:10224000FE28B6DCA401640AC0B2A9E780240022FB
:10225000FF20E403A4E78023DB031D4201D01C42DE
:102260000BD08024E4032C4364024246FF20640A1E
:1022700096E746462C008023DB031C4364023200B1
:10228000FF20640A8CE76D01600185422DD21B237B
:102290000024013F0126290064006D00002901DBB4
:1022A000854201D32D1A3443013B002BF3D16B1E21
:1022B0009D412C43B3E701231B1A1B2B00DD6DE767
:1022C00021009E37D940BC400B00611E8C41234346
:1022D000590704D00F211940042900D004335901B3
:1022E00013D49B0100205C0A5AE71A2301242D1AFB
:1022F000D0E7981E43425841404232000024C0B209
:102300004EE74246FF2000244AE70120002447E729
:10231000F02E0008302F0008FFFFFFF7F0B54F4602
:102320004646D6464502C0B546000F1C6D0A360E1D
:10233000C40F002E00D1CDE0FF2E72D08023ED001F
:10234000DB041D43002399469A467F3E7B025B0ACD
:1023500098467B001B0EFF0F002B72D0FF2B00D185
:10236000A9E07F3BF6184B460A2B00DD85E043468B
:102370008022DB00D2041A434B4690467C40002268
:10238000022B0FDD494601238B40A621C9000B42D9
:1023900000D072E0902189000B4200D0DAE0882161
:1023A000194267D1280C42462D042D0C43462900C2
:1023B00012041B0C120C51435D4342435843AD18A9
:1023C0000B0C5B199A4203D9802252029446604456
:1023D00009041A04090C52189501691E8D411B0C41
:1023E000920E1B1815439B011D431B0100D5CFE026
:1023F00030007F30002800DCB1E06B070BD00F23EA
:1024000032002B40042B06D004352B0103D580323B
:1024100010006A4B1D40FE2864DCAB015B0AC0B2B1
:102420001FE0002D00D08FE008239946063B9A4616
:102430007B025B0A98467B00FF261B0EFF0F002BDA
:102440008CD14346002B5CD14A4601331A43914656
:1024500013000A2A11DC01227C40022B92DC0020AE
:102460000023C0051843E4072043E0BCBA46B14648
:10247000A846F0BD3C00454692465346022B31D05B
:10248000032B11D0012BEAD030008030721C0028C1
:1024900066DD6B07B9D00F232B40042BB4D1B4E712
:1024A0000F2A7AD03C0045468023DB032B435B0296
:1024B000FF205B0AD5E74346FF36002B34D14A465E
:1024C000023313430A2BD8DC7C40002A0AD09946F9
:1024D000022257E7002D08D104239946033B00262A
:1024E0009A4633E7FF200023BBE72800FDF7A2FF51
:1024F0007626431F9D400023764299469A46361A17
:1025000024E74046FDF796FF4B46361A763E0A2BE7
:10251000B3DC43460538834098464B4600227C4056
:10252000022B00DD2EE73DE703234A461A43130042
:102530000A2AB5DC01229A40882113007C4003223C
:10254000194200D12EE795E70C239946093BFF2657
:102550009A46FBE680230024FF20DB0381E732005C
:1025600001231B1A1B2B00DD79E79E3229009540C1
:10257000D9406A1E95410D436B0704D00F232B40B1
:10258000042B00D004356B0113D50120002368E72C
:1025900001236A081D40154376E78023DB031D42B3
:1025A00082D042461A4200D07EE73C00FF2013430F
:1025B00057E7AB0100205B0A53E7C046FFFFFFF778
:1025C000F8B54746CE464B02460080B5C40F4702D9
:1025D000580A844648007A0A360EBF09000ECD0F0D
:1025E0009B09FF286DD001214D40311AAC423AD0F1
:1025F000002900DC9CE1002800D19EE0FF2E00D1E4
:1026000088E08022D20413431B2900DCF6E0013F5E
:102610007A0100D479E001277F42BF01BB099846C7
:102620004046FDF707FF434605388340864200DCFD
:10263000CCE0B44F311A1F405A0768D00F22134024
:10264000042B64D004377B0161D5481CFE2900D0DF
:1026500081E0FF200023C0051843E4072043C0BCED
:10266000B946B046F8BD002900DC79E1002876D1F2
:10267000002B4CD0481E012900D147E1FF2949D049
:102680001B2871DC01001A002020CA40411A8B402F
:10269000591E8B411343FF188023DB041F4200D1D6
:1026A000B8E0711CFE2ED4D0012297483A407F0832
:1026B000074017437A0700D096E01F42C5D1FA08B9
:1026C00055E03100FF398946002B2CD101214D40C6
:1026D000AC4200D1B4E0494600294CD0002E00D0D5
:1026E000F9E0FF21002F00D108E14A1E012900D1A5
:1026F00056E1FF2900D142E11B2A00DC24E15F1EE4
:102700002C0006007A0100D585E731000437FA086D
:10271000FF292CD1002A9CD08023DB0313435B02CA
:10272000FF205B0A97E7AC4200D1A7E0002922D046
:10273000002ED6D062462C00EEE7002BE7D0481ED4
:10274000012936D0FF29E5D001005DE701203B00DB
:102750007A0100D457E1C0B2BB015B0A7BE7FF2ED0
:10276000D8D01B2900DC9FE031000537FA0853025E
:102770005B0AC8B26FE7FE20711C084254D1002EDC
:1027800000D0B1E0002F00D102E1002B00D1F9E030
:102790008021FA1AC9040A4200D13BE10124DF1B5F
:1027A0002C40002F49D001200F42D5D10021FA083A
:1027B000DDE7FF1A7B0100D4DEE0BD01AD09280092
:1027C000FDF738FE2B000538834001262022811BAF
:1027D0000131521A1F009340CF405A1E93411F43AC
:1027E0002BD000217B07B1D00F233B40042B00D01E
:1027F00028E77B0100D528E7FA08B8E71A0020206F
:10280000CA40411A8B40591E8B411343FF1A7B016A
:1028100000D502E77B0700D10DE10F2331003B40DB
:10282000042B00D00EE772E7FA1A9046520156D4F4
:102830004346002B00D0F3E60024002000230AE7E3
:10284000494600291CD0002E00D002E7FF21002FAE
:1028500055D04A1E012959D0FF2900D190E01B2AEA
:1028600000DD91E011003A002025CA40691A8F402E
:10287000791E8F4117430600FF180DE7002926D166
:10288000FE20711C084213D1002E00D096E0002FCC
:1028900000D1B4E0002B75D0FB185A0100D4B2E08F
:1028A0009B015B0AFD38D6E68022D2041343EAE698
:1028B000FF2900D1CDE6FA185208530705D00F239F
:1028C000171D1340042B00D021E7D2084FE7002E3C
:1028D000BCD0624620E72C00FF200023BBE6012489
:1028E000DB1B98462C409BE6002F75D1002B00D0B7
:1028F00096E080230024FF20DB03ACE62C001F00C1
:1029000005E7C046FFFFFFFBFFFFFF7DFB185A01F5
:1029100000D48DE04A4A5B081A40590700D18CE088
:102920000F210B400D39042BCFD00221171DEEE6ED
:10293000002900D11FE7821B1100002E00D1D1E633
:102940008021C9040F43D7E639002024D140A21AC0
:1029500097407A1E97410F432C000600DF1B56E775
:1029600000298DD0811B002E00D170E71B290BDCC4
:102970008022D204174376E70121FA08F7E62C00FB
:102980006246C7E60021F2E605330100DA08EEE60A
:10299000002B00D150E70124002162462C40E6E6DE
:1029A000DA1B530132D5920194092000FDF742FD54
:1029B0002300053883402C00012607E7002FDFD0D5
:1029C000002B17D08023DB039A4200D2A4E69C455B
:1029D00000D3A1E662469FE6002B0BD08023DB03E9
:1029E0009A4200D298E69C4500D395E601246246BF
:1029F0002C4091E68023DB03FF2013432BE60020CD
:102A0000002B00D127E60021DA08B0E62C000121D6
:102A1000D208ACE6002A00D10EE70021D208A6E6D3
:102A2000802362460124DB03FF2013432C4012E67F
:102A30000121DA089BE6310069E60221D20896E618
:102A4000FFFFFF7D41024200C30F490A0020120E22
:102A50007E2A03DD9D2A02DD094A981870478020EE
:102A600000040143952A07DC9620821AD14048428F
:102A7000002BF3D10800F1E7963A9140F7E7C04602
:102A8000FFFFFF7F70B5002812D0C317C5185D4047
:102A9000C40F2800FDF7CEFC9E231B1A962B0FDCDB
:102AA000082838D0083885406D026D0AD8B202E097
:102AB000002400200025C0052843E407204370BD02
:102AC000992B14DC421F95402A00154911405507E7
:102AD0001CD00F252A40042A18D00431CA08490105
:102AE00015D59F235202181A550AC0B2E3E7020017
:102AF00029001B3291404A1E91410522121AD540ED
:102B00002A000A43064911405507E2D1CA08520279
:102B1000550AD8B2CFE76D026D0A8E30CBE7C046BA
:102B2000FFFFFFFB10B5041E0DD0FDF783FC9E23B5
:102B30001B1A962B0CDC082834D008388440640219
:102B4000640AD8B201E000200024C005204310BD73
:102B5000992B13DC421F9440144A224061071CD079
:102B60000F212140042918D00432D408520115D570
:102B70009F236402181A640AC0B2E6E7020021002B
:102B80001B3291400A00511E8A410521091ACC408E
:102B90001443064A22406107E2D1D4086402640A61
:102BA000D8B2D2E76402640A8E30CEE7FFFFFFFBA3
:102BB00070B542004E024C0045026D0A120EC30F62
:102BC000760A240EC90FFF2A10D0FF2C0CD001204A
:102BD000A2420AD1B54208D18B420FD0002A04D1BB
:102BE0002800431E984100E0012070BD0120FF2C09
:102BF000FBD13543F9D14B401800F6E70020F4E74C
:102C000030B5420044024D02C30F4800640A120E60
:102C10006D0A000EC90FFF2A18D0FF280AD0002A1B
:102C20001ED100280AD1002D29D0002C2DD148001A
:102C3000013830BD002D25D1002A01D1002CF6D05D
:102C40008B4219D001205B421843F2E7002C19D1C6
:102C5000FF28F7D1002D15D100208B42F2D1E8E7F3
:102C60000028EFD08B42EDD18242EBDC04DBAC429A
:102C7000E8D80020AC42DCD258000138D9E7002C5B
:102C8000D7D0DFE702204042D3E78B42DAD1EEE72C
:102C900030B5420044024D02C30F4800640A120ED0
:102CA0006D0A000EC90FFF2A17D0FF280AD0002A8C
:102CB0001BD100280AD1002D1DD0002C2DD1480099
:102CC000013811E0002D0ED1002A01D1002CF6D0E0
:102CD0008B420CD15800013806E0002C03D1FF28AC
:102CE00005D1002D15D0022030BD002806D10120CD
:102CF0005B421843F8E7002CF6D0F8E78B42F6D198
:102D00008242F4DCE6DBAC42F1D80020AC42EBD2EC
:102D1000E0E700208B42EAD1E6E78B42E7D1F2E719
:102D2000F8B5C046F8BC08BC9E467047F8B5C0462A
:082D3000F8BC08BC9E46704788
:102D3800253033640000000047414D45204F56457B
:102D48005220285E5F5E29005265706C61793A20D6
:102D58007377340057656C636F6D6520746F00007E
:102D68000000000076696B6120696E676F7A6920E0
:102D7800212121004576616465206172726F777345
:102D880000000000616E64207375727669766521B3
:102D9800212100005570203A20737731000000008F
:102DA800446F776E203A2073773300005265616470
:102DB800793F000073746172743A207377320000AF
:102DC8005374617274696E6720696E003500000083
:102DD800340000003300000032000000310052458A
:102DE800454E54206D616C6C6F6320737563636529
:102DF80065646564002F5F5F772F61726D2D6E6F5C
:102E08006E652D656162692D6763632D78706163F6
:102E18006B2F61726D2D6E6F6E652D656162692D08
:102E28006763632D787061636B2F6275696C642DBD
:102E38006173736574732F6275696C642F77696E3B
:102E480033322D7836342F736F75726365732F6E36
:102E580065776C69622D63796777696E2F6E657720
:102E68006C69622F6C6962632F7374646C69622F7A
:102E780072616E642E63002C2066756E6374696FD0
:102E88006E3A2000617373657274696F6E20222533
:102E98007322206661696C65643A2066696C6520F6
:102EA800222573222C206C696E65202564257325E4
:102EB800730A00232D302B2000686C4C0065666770
:102EC8004546470030313233343536373839414298
:102ED800434445460030313233343536373839616A
:102EE800626364656600000086220008B22100085B
:102EF8009C210008182200089C2100084C22000888
:102F08009C21000818220008B2210008B2210008FC
:102F18004C2200081822000888210008882100088F
:102F28008821000856220008B2210008B2210008B2
:102F38009C210008F22200089C2100084C2200086D
:102F48009C210008F2220008B2210008B2210008E2
:102F58004C220008F2220008882100088821000875
:042F680088210008B4
:042F6C0099040008BC
:042F700071040008E0
:102F74002020202020202020202020202020206FFE
:102F84000000000073636F72653A203030302020F7
:102F940020202020000000000000000003000000AA
:102FA400A00000203800002000000000A000002045
:102FB4000801002070010020000000000000000053
:102FC40000000000000000000000000000000000FD
:102FD40000000000000000000000000000000000ED
:102FE40000000000000000000000000000000000DD
:042FF40000000000D9
:0400000508000BA143
:00000001FF
